{
  "_format": "hh-sol-artifact-1",
  "contractName": "FHERacePredict",
  "sourceName": "contracts/FHERacePredict.sol",
  "abi": [
    {
      "inputs": [
        {
          "internalType": "address",
          "name": "user",
          "type": "address"
        }
      ],
      "name": "getInfoHistory",
      "outputs": [
        {
          "internalType": "euint32[]",
          "name": "",
          "type": "bytes32[]"
        }
      ],
      "stateMutability": "view",
      "type": "function"
    },
    {
      "inputs": [],
      "name": "protocolId",
      "outputs": [
        {
          "internalType": "uint256",
          "name": "",
          "type": "uint256"
        }
      ],
      "stateMutability": "pure",
      "type": "function"
    },
    {
      "inputs": [
        {
          "internalType": "externalEuint32",
          "name": "encryptedInput",
          "type": "bytes32"
        },
        {
          "internalType": "bytes",
          "name": "proof",
          "type": "bytes"
        }
      ],
      "name": "submitInfo",
      "outputs": [],
      "stateMutability": "nonpayable",
      "type": "function"
    }
  ],
  "bytecode": "0x608060405234801561000f575f5ffd5b5061018a6100ae604080516080810182525f80825260208201819052918101829052606081019190915250604080516080810182527350157cffd6bbfa2dece204a89ec419c23ef5755d815273cd3ab3bd6bcc0c0bf3e27912a92043e817b1cf69602082015273a02cda4ca3a71d7c46997716f4283aa851c2881291810191909152731364cbbf2cdf5032c47d8226a6f6fbd2afcdacac606082015290565b80517f9e7b61f58c47dc699ac88507c4f5bb9f121c03808c5676a8078fe583e464970080546001600160a01b03199081166001600160a01b039384161790915560208301517f9e7b61f58c47dc699ac88507c4f5bb9f121c03808c5676a8078fe583e46497018054831691841691909117905560408301517f9e7b61f58c47dc699ac88507c4f5bb9f121c03808c5676a8078fe583e46497028054831691841691909117905560608301517f9e7b61f58c47dc699ac88507c4f5bb9f121c03808c5676a8078fe583e46497038054909216921691909117905550565b6104c5806101975f395ff3fe608060405234801561000f575f5ffd5b506004361061003f575f3560e01c80635ceeceb114610043578063da1f12ab1461006c578063e6fe88311461007c575b5f5ffd5b610056610051366004610353565b610091565b6040516100639190610379565b60405180910390f35b6040516127118152602001610063565b61008f61008a3660046103bb565b6100f8565b005b6001600160a01b0381165f90815260208181526040918290208054835181840281018401909452808452606093928301828280156100ec57602002820191905f5260205f20905b8154815260200190600101908083116100d8575b50505050509050919050565b5f6101388484848080601f0160208091040260200160405190810160405280939291908181526020018383808284375f9201919091525061017592505050565b905061014381610189565b50335f818152602081815260408220805460018101825590835291200182905561016e908290610198565b5050505050565b5f610182838360046101aa565b9392505050565b5f61019482306102ca565b5090565b5f6101a383836102ca565b5090919050565b7f9e7b61f58c47dc699ac88507c4f5bb9f121c03808c5676a8078fe583e46497015460405163196d0b9b60e01b81525f917f9e7b61f58c47dc699ac88507c4f5bb9f121c03808c5676a8078fe583e4649700916001600160a01b039091169063196d0b9b90610223908890339089908990600401610432565b6020604051808303815f875af115801561023f573d5f5f3e3d5ffd5b505050506040513d601f19601f8201168201806040525081019061026391906104a1565b8154604051630f8e573b60e21b8152600481018390523360248201529193506001600160a01b031690633e395cec906044015f604051808303815f87803b1580156102ac575f5ffd5b505af11580156102be573d5f5f3e3d5ffd5b50505050509392505050565b5f7f9e7b61f58c47dc699ac88507c4f5bb9f121c03808c5676a8078fe583e46497008054604051635ca4b5b160e11b8152600481018690526001600160a01b03858116602483015292935091169063b9496b62906044015f604051808303815f87803b158015610338575f5ffd5b505af115801561034a573d5f5f3e3d5ffd5b50505050505050565b5f60208284031215610363575f5ffd5b81356001600160a01b0381168114610182575f5ffd5b602080825282518282018190525f918401906040840190835b818110156103b0578351835260209384019390920191600101610392565b509095945050505050565b5f5f5f604084860312156103cd575f5ffd5b83359250602084013567ffffffffffffffff8111156103ea575f5ffd5b8401601f810186136103fa575f5ffd5b803567ffffffffffffffff811115610410575f5ffd5b866020828401011115610421575f5ffd5b939660209190910195509293505050565b8481526001600160a01b0384166020820152608060408201525f8351806080840152806020860160a085015e5f60a0828501015260a0601f19601f8301168401019150506054831061049257634e487b7160e01b5f52602160045260245ffd5b82606083015295945050505050565b5f602082840312156104b1575f5ffd5b505191905056fea164736f6c634300081b000a",
  "linkReferences": {},
  "deployedLinkReferences": {}
}